{
  "_format": "hh-sol-artifact-1",
  "contractName": "Upload",
  "sourceName": "contracts/Upload.sol",
  "abi": [
    {
      "anonymous": false,
      "inputs": [
        {
          "indexed": true,
          "internalType": "address",
          "name": "userAddress",
          "type": "address"
        },
        {
          "indexed": true,
          "internalType": "uint256",
          "name": "fileId",
          "type": "uint256"
        }
      ],
      "name": "FileAdded",
      "type": "event"
    },
    {
      "anonymous": false,
      "inputs": [
        {
          "indexed": true,
          "internalType": "address",
          "name": "viewerAddress",
          "type": "address"
        },
        {
          "indexed": true,
          "internalType": "uint256",
          "name": "timestamp",
          "type": "uint256"
        },
        {
          "indexed": false,
          "internalType": "uint256",
          "name": "fileId",
          "type": "uint256"
        }
      ],
      "name": "FileViewed",
      "type": "event"
    },
    {
      "anonymous": false,
      "inputs": [
        {
          "indexed": true,
          "internalType": "address",
          "name": "GranterAddress",
          "type": "address"
        },
        {
          "indexed": true,
          "internalType": "address",
          "name": "GranteeAddress",
          "type": "address"
        },
        {
          "indexed": true,
          "internalType": "uint256",
          "name": "fileId",
          "type": "uint256"
        }
      ],
      "name": "GrantedAccess",
      "type": "event"
    },
    {
      "anonymous": false,
      "inputs": [
        {
          "indexed": true,
          "internalType": "address",
          "name": "GranterAddress",
          "type": "address"
        },
        {
          "indexed": true,
          "internalType": "address",
          "name": "GranteeAddress",
          "type": "address"
        },
        {
          "indexed": true,
          "internalType": "uint256",
          "name": "fileId",
          "type": "uint256"
        }
      ],
      "name": "RevokedAccess",
      "type": "event"
    },
    {
      "inputs": [
        {
          "internalType": "address",
          "name": "_userAddress",
          "type": "address"
        },
        {
          "internalType": "string",
          "name": "_hash",
          "type": "string"
        }
      ],
      "name": "addFile",
      "outputs": [],
      "stateMutability": "nonpayable",
      "type": "function"
    },
    {
      "inputs": [
        {
          "internalType": "uint256",
          "name": "_fileId",
          "type": "uint256"
        },
        {
          "internalType": "address",
          "name": "_ownerAddress",
          "type": "address"
        },
        {
          "internalType": "address",
          "name": "_userAddress",
          "type": "address"
        }
      ],
      "name": "allowUser",
      "outputs": [],
      "stateMutability": "nonpayable",
      "type": "function"
    },
    {
      "inputs": [
        {
          "internalType": "address",
          "name": "_ownerAddress",
          "type": "address"
        }
      ],
      "name": "getOwnerFiles",
      "outputs": [
        {
          "internalType": "uint256[]",
          "name": "",
          "type": "uint256[]"
        }
      ],
      "stateMutability": "view",
      "type": "function"
    },
    {
      "inputs": [
        {
          "internalType": "uint256",
          "name": "_fileId",
          "type": "uint256"
        },
        {
          "internalType": "address",
          "name": "_ownerAddress",
          "type": "address"
        }
      ],
      "name": "logView",
      "outputs": [],
      "stateMutability": "nonpayable",
      "type": "function"
    },
    {
      "inputs": [
        {
          "internalType": "uint256",
          "name": "_fileId",
          "type": "uint256"
        },
        {
          "internalType": "address",
          "name": "_ownerAddress",
          "type": "address"
        },
        {
          "internalType": "address",
          "name": "_userAddress",
          "type": "address"
        }
      ],
      "name": "revokeUser",
      "outputs": [],
      "stateMutability": "nonpayable",
      "type": "function"
    },
    {
      "inputs": [
        {
          "internalType": "uint256",
          "name": "_fileId",
          "type": "uint256"
        },
        {
          "internalType": "address",
          "name": "_ownerAddress",
          "type": "address"
        }
      ],
      "name": "viewFile",
      "outputs": [
        {
          "internalType": "string",
          "name": "",
          "type": "string"
        }
      ],
      "stateMutability": "view",
      "type": "function"
    },
    {
      "inputs": [
        {
          "internalType": "uint256",
          "name": "_fileId",
          "type": "uint256"
        },
        {
          "internalType": "address",
          "name": "_ownerAddress",
          "type": "address"
        }
      ],
      "name": "viewFileHistory",
      "outputs": [
        {
          "components": [
            {
              "internalType": "address",
              "name": "viewer",
              "type": "address"
            },
            {
              "internalType": "uint256",
              "name": "timestamp",
              "type": "uint256"
            }
          ],
          "internalType": "struct Upload.ViewHistory[]",
          "name": "",
          "type": "tuple[]"
        }
      ],
      "stateMutability": "view",
      "type": "function"
    }
  ],
  "bytecode": "0x608060405234801561001057600080fd5b50611f8c806100206000396000f3fe608060405234801561001057600080fd5b506004361061007d5760003560e01c8063a48841751161005b578063a4884175146100fe578063b52d66241461011a578063b8702a311461014a578063ef1f8fa6146101665761007d565b806321216d811461008257806351c5e736146100b257806380bd5e53146100e2575b600080fd5b61009c600480360381019061009791906114bd565b610182565b6040516100a991906115f9565b60405180910390f35b6100cc60048036038101906100c791906114bd565b610303565b6040516100d991906116b4565b60405180910390f35b6100fc60048036038101906100f7919061180b565b61054b565b005b61011860048036038101906101139190611867565b610872565b005b610134600480360381019061012f91906118ba565b610c5d565b6040516101419190611996565b60405180910390f35b610164600480360381019061015f9190611867565b610d61565b005b610180600480360381019061017b91906114bd565b610f78565b005b60608173ffffffffffffffffffffffffffffffffffffffff163373ffffffffffffffffffffffffffffffffffffffff16146101f2576040517f08c379a00000000000000000000000000000000000000000000000000000000081526004016101e990611a04565b60405180910390fd5b600160008373ffffffffffffffffffffffffffffffffffffffff1673ffffffffffffffffffffffffffffffffffffffff1681526020019081526020016000206000848152602001908152602001600020600301805480602002602001604051908101604052809291908181526020016000905b828210156102f757838290600052602060002090600202016040518060400160405290816000820160009054906101000a900473ffffffffffffffffffffffffffffffffffffffff1673ffffffffffffffffffffffffffffffffffffffff1673ffffffffffffffffffffffffffffffffffffffff16815260200160018201548152505081526020019060010190610265565b50505050905092915050565b60606000600160008473ffffffffffffffffffffffffffffffffffffffff1673ffffffffffffffffffffffffffffffffffffffff16815260200190815260200160002060008581526020019081526020016000206002018054806020026020016040519081016040528092919081815260200182805480156103da57602002820191906000526020600020905b8160009054906101000a900473ffffffffffffffffffffffffffffffffffffffff1673ffffffffffffffffffffffffffffffffffffffff1681526020019060010190808311610390575b5050505050905060006103ed338361122d565b9050808061042657508373ffffffffffffffffffffffffffffffffffffffff163373ffffffffffffffffffffffffffffffffffffffff16145b610465576040517f08c379a000000000000000000000000000000000000000000000000000000000815260040161045c90611a70565b60405180910390fd5b600160008573ffffffffffffffffffffffffffffffffffffffff1673ffffffffffffffffffffffffffffffffffffffff168152602001908152602001600020600086815260200190815260200160002060010180546104c390611abf565b80601f01602080910402602001604051908101604052809291908181526020018280546104ef90611abf565b801561053c5780601f106105115761010080835404028352916020019161053c565b820191906000526020600020905b81548152906001019060200180831161051f57829003601f168201915b50505050509250505092915050565b600073ffffffffffffffffffffffffffffffffffffffff168273ffffffffffffffffffffffffffffffffffffffff1614156105bb576040517f08c379a00000000000000000000000000000000000000000000000000000000081526004016105b290611b3d565b60405180910390fd5b7fc5d2460186f7233c927e7db2dcc703c0e500b653ca82273b7bfad8045d85a470816040516020016105ed9190611b99565b604051602081830303815290604052805190602001201415610644576040517f08c379a000000000000000000000000000000000000000000000000000000000815260040161063b90611bfc565b60405180910390fd5b8173ffffffffffffffffffffffffffffffffffffffff163373ffffffffffffffffffffffffffffffffffffffff16146106b2576040517f08c379a00000000000000000000000000000000000000000000000000000000081526004016106a990611c68565b60405180910390fd5b600060016000808573ffffffffffffffffffffffffffffffffffffffff1673ffffffffffffffffffffffffffffffffffffffff168152602001908152602001600020805490506107029190611cb7565b905080600160008573ffffffffffffffffffffffffffffffffffffffff1673ffffffffffffffffffffffffffffffffffffffff16815260200190815260200160002060008381526020019081526020016000206000018190555081600160008573ffffffffffffffffffffffffffffffffffffffff1673ffffffffffffffffffffffffffffffffffffffff168152602001908152602001600020600083815260200190815260200160002060010190805190602001906107c3929190611372565b506000808473ffffffffffffffffffffffffffffffffffffffff1673ffffffffffffffffffffffffffffffffffffffff168152602001908152602001600020819080600181540180825580915050600190039060005260206000200160009091909190915055808373ffffffffffffffffffffffffffffffffffffffff167f2b274a65505764a0b5cd751243bb52c611c94d959a38ef4ccc3452bd8758ec8560405160405180910390a3505050565b8173ffffffffffffffffffffffffffffffffffffffff163373ffffffffffffffffffffffffffffffffffffffff16146108e0576040517f08c379a00000000000000000000000000000000000000000000000000000000081526004016108d790611a04565b60405180910390fd5b6000600160008473ffffffffffffffffffffffffffffffffffffffff1673ffffffffffffffffffffffffffffffffffffffff16815260200190815260200160002060008581526020019081526020016000206002018054806020026020016040519081016040528092919081815260200182805480156109b557602002820191906000526020600020905b8160009054906101000a900473ffffffffffffffffffffffffffffffffffffffff1673ffffffffffffffffffffffffffffffffffffffff168152602001906001019080831161096b575b5050505050905060006109c8838361122d565b905080610a0a576040517f08c379a0000000000000000000000000000000000000000000000000000000008152600401610a0190611d59565b60405180910390fd5b6000610a1684846112b5565b9050600160008673ffffffffffffffffffffffffffffffffffffffff1673ffffffffffffffffffffffffffffffffffffffff168152602001908152602001600020600087815260200190815260200160002060020160018451610a799190611d79565b81548110610a8a57610a89611dad565b5b9060005260206000200160009054906101000a900473ffffffffffffffffffffffffffffffffffffffff16600160008773ffffffffffffffffffffffffffffffffffffffff1673ffffffffffffffffffffffffffffffffffffffff16815260200190815260200160002060008881526020019081526020016000206002018281548110610b1a57610b19611dad565b5b9060005260206000200160006101000a81548173ffffffffffffffffffffffffffffffffffffffff021916908373ffffffffffffffffffffffffffffffffffffffff160217905550600160008673ffffffffffffffffffffffffffffffffffffffff1673ffffffffffffffffffffffffffffffffffffffff1681526020019081526020016000206000878152602001908152602001600020600201805480610bc557610bc4611ddc565b5b6001900381819060005260206000200160006101000a81549073ffffffffffffffffffffffffffffffffffffffff02191690559055858473ffffffffffffffffffffffffffffffffffffffff168673ffffffffffffffffffffffffffffffffffffffff167f7c41e42788ae475a5cf1ba1aa47774043c83685a79e5e0a13c051a1116acebb160405160405180910390a4505050505050565b60608173ffffffffffffffffffffffffffffffffffffffff163373ffffffffffffffffffffffffffffffffffffffff1614610ccd576040517f08c379a0000000000000000000000000000000000000000000000000000000008152600401610cc490611a04565b60405180910390fd5b6000808373ffffffffffffffffffffffffffffffffffffffff1673ffffffffffffffffffffffffffffffffffffffff168152602001908152602001600020805480602002602001604051908101604052809291908181526020018280548015610d5557602002820191906000526020600020905b815481526020019060010190808311610d41575b50505050509050919050565b8173ffffffffffffffffffffffffffffffffffffffff163373ffffffffffffffffffffffffffffffffffffffff1614610dcf576040517f08c379a0000000000000000000000000000000000000000000000000000000008152600401610dc690611a04565b60405180910390fd5b82600160008473ffffffffffffffffffffffffffffffffffffffff1673ffffffffffffffffffffffffffffffffffffffff16815260200190815260200160002060008581526020019081526020016000206000015414610e64576040517f08c379a0000000000000000000000000000000000000000000000000000000008152600401610e5b90611e57565b60405180910390fd5b600160008373ffffffffffffffffffffffffffffffffffffffff1673ffffffffffffffffffffffffffffffffffffffff1681526020019081526020016000206000848152602001908152602001600020600201819080600181540180825580915050600190039060005260206000200160009091909190916101000a81548173ffffffffffffffffffffffffffffffffffffffff021916908373ffffffffffffffffffffffffffffffffffffffff160217905550828173ffffffffffffffffffffffffffffffffffffffff168373ffffffffffffffffffffffffffffffffffffffff167f0f1628894ecc135328b4804361e56d56f4475922d79ac4cb2b0e8f3d4688f2c960405160405180910390a4505050565b6000600160008373ffffffffffffffffffffffffffffffffffffffff1673ffffffffffffffffffffffffffffffffffffffff168152602001908152602001600020600084815260200190815260200160002060020180548060200260200160405190810160405280929190818152602001828054801561104d57602002820191906000526020600020905b8160009054906101000a900473ffffffffffffffffffffffffffffffffffffffff1673ffffffffffffffffffffffffffffffffffffffff1681526020019060010190808311611003575b505050505090506000611060338361122d565b9050808061109957508273ffffffffffffffffffffffffffffffffffffffff163373ffffffffffffffffffffffffffffffffffffffff16145b6110d8576040517f08c379a00000000000000000000000000000000000000000000000000000000081526004016110cf90611a70565b60405180910390fd5b600060405180604001604052803373ffffffffffffffffffffffffffffffffffffffff168152602001428152509050600160008573ffffffffffffffffffffffffffffffffffffffff1673ffffffffffffffffffffffffffffffffffffffff168152602001908152602001600020600086815260200190815260200160002060030181908060018154018082558091505060019003906000526020600020906002020160009091909190915060008201518160000160006101000a81548173ffffffffffffffffffffffffffffffffffffffff021916908373ffffffffffffffffffffffffffffffffffffffff160217905550602082015181600101555050423373ffffffffffffffffffffffffffffffffffffffff167fb9ce0cdf7f2c4349b2d9440555d7bcce026494a77453990ccc21c0709aeb781a8760405161121e9190611e86565b60405180910390a35050505050565b600080600090505b82518110156112a9578373ffffffffffffffffffffffffffffffffffffffff1683828151811061126857611267611dad565b5b602002602001015173ffffffffffffffffffffffffffffffffffffffff1614156112965760019150506112af565b80806112a190611ea1565b915050611235565b50600090505b92915050565b600080600090505b8251811015611330578373ffffffffffffffffffffffffffffffffffffffff168382815181106112f0576112ef611dad565b5b602002602001015173ffffffffffffffffffffffffffffffffffffffff16141561131d578091505061136c565b808061132890611ea1565b9150506112bd565b506040517f08c379a000000000000000000000000000000000000000000000000000000000815260040161136390611f36565b60405180910390fd5b92915050565b82805461137e90611abf565b90600052602060002090601f0160209004810192826113a057600085556113e7565b82601f106113b957805160ff19168380011785556113e7565b828001600101855582156113e7579182015b828111156113e65782518255916020019190600101906113cb565b5b5090506113f491906113f8565b5090565b5b808211156114115760008160009055506001016113f9565b5090565b6000604051905090565b600080fd5b600080fd5b6000819050919050565b61143c81611429565b811461144757600080fd5b50565b60008135905061145981611433565b92915050565b600073ffffffffffffffffffffffffffffffffffffffff82169050919050565b600061148a8261145f565b9050919050565b61149a8161147f565b81146114a557600080fd5b50565b6000813590506114b781611491565b92915050565b600080604083850312156114d4576114d361141f565b5b60006114e28582860161144a565b92505060206114f3858286016114a8565b9150509250929050565b600081519050919050565b600082825260208201905092915050565b6000819050602082019050919050565b6115328161147f565b82525050565b61154181611429565b82525050565b60408201600082015161155d6000850182611529565b5060208201516115706020850182611538565b50505050565b60006115828383611547565b60408301905092915050565b6000602082019050919050565b60006115a6826114fd565b6115b08185611508565b93506115bb83611519565b8060005b838110156115ec5781516115d38882611576565b97506115de8361158e565b9250506001810190506115bf565b5085935050505092915050565b60006020820190508181036000830152611613818461159b565b905092915050565b600081519050919050565b600082825260208201905092915050565b60005b8381101561165557808201518184015260208101905061163a565b83811115611664576000848401525b50505050565b6000601f19601f8301169050919050565b60006116868261161b565b6116908185611626565b93506116a0818560208601611637565b6116a98161166a565b840191505092915050565b600060208201905081810360008301526116ce818461167b565b905092915050565b600080fd5b600080fd5b7f4e487b7100000000000000000000000000000000000000000000000000000000600052604160045260246000fd5b6117188261166a565b810181811067ffffffffffffffff82111715611737576117366116e0565b5b80604052505050565b600061174a611415565b9050611756828261170f565b919050565b600067ffffffffffffffff821115611776576117756116e0565b5b61177f8261166a565b9050602081019050919050565b82818337600083830152505050565b60006117ae6117a98461175b565b611740565b9050828152602081018484840111156117ca576117c96116db565b5b6117d584828561178c565b509392505050565b600082601f8301126117f2576117f16116d6565b5b813561180284826020860161179b565b91505092915050565b600080604083850312156118225761182161141f565b5b6000611830858286016114a8565b925050602083013567ffffffffffffffff81111561185157611850611424565b5b61185d858286016117dd565b9150509250929050565b6000806000606084860312156118805761187f61141f565b5b600061188e8682870161144a565b935050602061189f868287016114a8565b92505060406118b0868287016114a8565b9150509250925092565b6000602082840312156118d0576118cf61141f565b5b60006118de848285016114a8565b91505092915050565b600081519050919050565b600082825260208201905092915050565b6000819050602082019050919050565b600061191f8383611538565b60208301905092915050565b6000602082019050919050565b6000611943826118e7565b61194d81856118f2565b935061195883611903565b8060005b838110156119895781516119708882611913565b975061197b8361192b565b92505060018101905061195c565b5085935050505092915050565b600060208201905081810360008301526119b08184611938565b905092915050565b7f4e6f74204f776e65720000000000000000000000000000000000000000000000600082015250565b60006119ee600983611626565b91506119f9826119b8565b602082019050919050565b60006020820190508181036000830152611a1d816119e1565b9050919050565b7f4e6f7420416c6c6f776564000000000000000000000000000000000000000000600082015250565b6000611a5a600b83611626565b9150611a6582611a24565b602082019050919050565b60006020820190508181036000830152611a8981611a4d565b9050919050565b7f4e487b7100000000000000000000000000000000000000000000000000000000600052602260045260246000fd5b60006002820490506001821680611ad757607f821691505b60208210811415611aeb57611aea611a90565b5b50919050565b7f5a65726f20416464726573730000000000000000000000000000000000000000600082015250565b6000611b27600c83611626565b9150611b3282611af1565b602082019050919050565b60006020820190508181036000830152611b5681611b1a565b9050919050565b600081905092915050565b6000611b738261161b565b611b7d8185611b5d565b9350611b8d818560208601611637565b80840191505092915050565b6000611ba58284611b68565b915081905092915050565b7f456d70747920737472696e670000000000000000000000000000000000000000600082015250565b6000611be6600c83611626565b9150611bf182611bb0565b602082019050919050565b60006020820190508181036000830152611c1581611bd9565b9050919050565b7f416464726573734e6f744f776e65720000000000000000000000000000000000600082015250565b6000611c52600f83611626565b9150611c5d82611c1c565b602082019050919050565b60006020820190508181036000830152611c8181611c45565b9050919050565b7f4e487b7100000000000000000000000000000000000000000000000000000000600052601160045260246000fd5b6000611cc282611429565b9150611ccd83611429565b9250827fffffffffffffffffffffffffffffffffffffffffffffffffffffffffffffffff03821115611d0257611d01611c88565b5b828201905092915050565b7f55736572204e6f7420416c6c6f77656400000000000000000000000000000000600082015250565b6000611d43601083611626565b9150611d4e82611d0d565b602082019050919050565b60006020820190508181036000830152611d7281611d36565b9050919050565b6000611d8482611429565b9150611d8f83611429565b925082821015611da257611da1611c88565b5b828203905092915050565b7f4e487b7100000000000000000000000000000000000000000000000000000000600052603260045260246000fd5b7f4e487b7100000000000000000000000000000000000000000000000000000000600052603160045260246000fd5b7f57726f6e67496400000000000000000000000000000000000000000000000000600082015250565b6000611e41600783611626565b9150611e4c82611e0b565b602082019050919050565b60006020820190508181036000830152611e7081611e34565b9050919050565b611e8081611429565b82525050565b6000602082019050611e9b6000830184611e77565b92915050565b6000611eac82611429565b91507fffffffffffffffffffffffffffffffffffffffffffffffffffffffffffffffff821415611edf57611ede611c88565b5b600182019050919050565b7f41646472657373204e6f7420466f756e64000000000000000000000000000000600082015250565b6000611f20601183611626565b9150611f2b82611eea565b602082019050919050565b60006020820190508181036000830152611f4f81611f13565b905091905056fea2646970667358221220fe2502c547927ddfba497f59fe0279fcd1943d334a9069a78e9c710fbd6521fd64736f6c63430008090033",
  "linkReferences": {},
  "deployedLinkReferences": {}
}